:03000000020008F3
:0300670002000391
:0300030002006A8E
:10006A001200C69006007401F0E4A3F090E100E4E7
:10007A00F5F01200DE758200120FF7758201120F79
:10008A00F7120678900B1CE4F0A3F0900B1EF09088
:10009A000B1FF0900B20F0900B21F0A3F075820853
:1000AA00121CD4E5C120E60985088285098312005D
:0C00BA0006121C2A121B0012109F80E787
:060061007508007509F4AA
:1000C60075A15575A1AA53B3E043B30675B2D875A9
:1000D600A1FF900007020607AF82AE83ADF0FC9049
:1000E6000602EFF0EEA3F0EDA3F0ECA3F09006000D
:1000F600E0F5F0A3E045F0600C43C60143C40843B5
:10010600C50C43CE10C29FD29EC29DD29C4387800F
:10011600900602E0FCA3E0FDA3E0FEA3E0FF900B47
:1001260034ECF0EDA3F0EEA3F0EFA3F0908D807524
:10013600F05BE4121EC2AC82AD830CBC00010DED77
:10014600C313CC13CC740F55894420F58943C9A039
:10015600C3E49CFC8C8DD28ED2992210980280FB2F
:1001660085998222E582900606F0E0F5993099FDA0
:10017600D29922E582900609F090060A74C4F074BA
:1001860000A3F07440A3F090060D74BAF07400A3B7
:10019600F07440A3F090061074BCF07400A3F074E1
:1001A60040A3F090061374BEF07400A3F07440A34D
:1001B600F090061674C5F07400A3F07440A3F09096
:1001C600061974BBF07400A3F07440A3F090061CEB
:1001D60074BDF07400A3F07440A3F090061F74BFC2
:1001E600F07400A3F07440A3F0900608E0FF24F931
:1001F600500122EF2F2F900200730202150202987F
:1002060002031D0203780203FA0204800205049029
:100216000609E0FFFE8EF005F07401800225E0D5A8
:10022600F0FBF4ADC65DF5C6EF75F003A4FFAEF0C6
:10023600240AF582EE3406F583E0FBA3E0FCA3E096
:10024600FD8B828C838DF0122A61FA900607E0F905
:1002560089F005F07401800225E0D5F0FBF4F9522F
:10026600028B828C838DF0EA121FB6EF2416F5827C
:10027600EE3406F583E0FDA3E0FEA3E0FF8D828E5B
:10028600838FF0122A6152018D828E838FF0E902EC
:100296001FB6900609E0FFFE8EF005F0740180029D
:1002A60025E0D5F0FBF4ADC65DF5C6EF75F003A409
:1002B600FFAEF0240AF582EE3406F583E0FBA3E0F8
:1002C600FCA3E0FD8B828C838DF0122A61FA9006E6
:1002D60007E0F989F005F07401800225E0D5F0FB0E
:1002E600F9F4F8EA52008B828C838DF0E8121FB67F
:1002F600EF2416F582EE3406F583E0FDA3E0FEA3B7
:10030600E0FF8D828E838FF0122A6142018D828EEC
:10031600838FF0E9021FB6900609E0FFFE8EF00516
:10032600F07401800225E0D5F0FBF4ADC65DF5C69C
:10033600EF75F003A4240AF582740635F0F583E020
:10034600FDA3E0FEA3E0FF8D828E838FF0122A616B
:10035600FC900607E0FB8BF005F07401800225E0B7
:10036600D5F0FBF4FBEC42038D828E838FF0EB021B
:100376001FB6900609E0FFFE8EF005F074018002BC
:1003860025E0D5F0FBADC64DF5C6EF75F003A4FF2D
:10039600AEF0240AF582EE3406F583E0FBA3E0FC1A
:1003A600A3E0FD8B828C838DF0122A61FA900607FA
:1003B600E0F989F005F07401800225E0D5F0FBF440
:1003C600F952028B828C838DF0EA121FB6EF241647
:1003D600F582EE3406F583E0FDA3E0FEA3E0FF8D93
:1003E600828E838FF0122A6152018D828E838FF066
:1003F600E9021FB6900609E0FFFE8EF005F07401D3
:10040600800225E0D5F0FBADC64DF5C6EF75F003CD
:10041600A4FFAEF0240AF582EE3406F583E0FBA3D2
:10042600E0FCA3E0FD8B828C838DF0122A61FA90AA
:100436000607E0F989F005F07401800225E0D5F0A1
:10044600FBF942028B828C838DF0EA121FB6EF24F1
:1004560016F582EE3406F583E0FDA3E0FEA3E0FF89
:100466008D828E838FF0122A61FCE9F4F9EC520139
:100476008D828E838FF0E9021FB6900609E0FFFE9B
:100486008EF005F07401800225E0D5F0FBADC64D77
:10049600F5C6EF75F003A4FFAEF0240AF582EE343C
:1004A60006F583E0FBA3E0FCA3E0FD8B828C838D45
:1004B600F0122A61FA900607E0F989F005F0740156
:1004C600800225E0D5F0FBF9F4F8EA52008B828C25
:1004D600838DF0E8121FB6EF2416F582EE3406F58A
:1004E60083E0FDA3E0FEA3E0FF8D828E838FF012F2
:1004F6002A6142018D828E838FF0E9021FB6900633
:1005060009E0FFFE8EF005F07401800225E0D5F0CB
:10051600FBADC64DF5C6EF75F003A4FFAEF0240A99
:10052600F582EE3406F583E0FBA3E0FCA3E0FD8B49
:10053600828C838DF0122A61FA900607E0F989F021
:1005460005F07401800225E0D5F0FBF942028B82AA
:100556008C838DF0EA121FB6EF2416F582EE340670
:10056600F583E0FDA3E0FEA3E0FF8D828E838FF08E
:10057600122A6142018D828E838FF0E9021FB6AF87
:1005860083E582900622F0EFA3F010990280FB909B
:100596000622E0FEA3E0FF8E998E828F83221098BA
:1005A6000280FBAE997F008E828F8322AF83E58225
:1005B600900624F0EFA3F0900624E0FEA3E0FFEE01
:1005C6004F603505A105A105A105A105A105A10558
:1005D600A105A105A105A105A105A105A105A105E5
:1005E600A105A105A105A105A11EBEFF011F90063B
:1005F60024EEF0EFA3F080C7900624EEF0EFA3F010
:1006060022AF83E582900626F0EFA3F0900626E05F
:10061600FEA3E0FFEE4F601D9003E8C007C0061280
:1006260005B2D006D0071EBEFF011F900626EEF0CB
:10063600EFA3F080DF900626EEF0EFA3F022E5822E
:1006460090082FF0E0FF75F003A4FDAEF02429F525
:1006560082EE3408F583E4F0ED2429FDEE3408FE3D
:100666008D828E83A3E4F0EF600475E5002275E4C5
:100676000022C2EA75E28075E3009024477448F0D0
:1006860090244CE4F0A3F090244E04F0E4A3F0F59B
:10069600D4F5D675E28975D24075D8FF75820012F9
:1006A600064475820112064475E10322E58290082C
:1006B60030F0E5E35480FFE0547F4FF5E322E58216
:1006C600900831F0E0600753E2BF53D27F2243E245
:1006D6004022E582900832F09006287408F0758270
:1006E600001206B27582011206C4900832E0FFE0DD
:1006F600701374FB55E44402F5E490000F120607EC
:1007060053E4FD8014BF011174FB55E54402F5E581
:1007160090000F12060753E5FD9000FA1205B2C2CB
:10072600D822E582900833F0E075F003A42429FE70
:10073600740835F0FF8E828F83E0FDBD01005007FF
:100746008E828F837401F0900833E0FF7049E5DBF9
:1007560020E3030207E6E5E420E035E5DB30E21AB4
:10076600EF75F003A42429FD740835F0FE8D828E02
:1007760083A3A3E4F043E4048016EF75F003A424F6
:1007860029FD740835F0FE8D828E83A3A37401F0D3
:1007960043E40175820022BF0146E5DB30E741E50F
:1007A600E520E035E5DB30E61AEF75F003A42429F1
:1007B600FD740835F0FE8D828E83A3A3E4F043E535
:1007C600048016EF75F003A42429FE740835F0FFA3
:1007D6008E828F83A3A37401F043E5017582002204
:1007E60075821622E582900835F0E075F003A424A0
:1007F60029FE740835F0FF8E828F83A3E0F582C050
:1008060007C0061206B2D006D0078E828F83A3A336
:10081600E0F5820206C4E582900839F0900836E0D9
:10082600FF8FD48FD690083AE4F0A3F0900839E011
:10083600FEC4540FFDBD0103ED8001E4F50DE4BDDA
:10084600090104F50E900837E0F9A3E0FA8ED5C247
:10085600D9750AC8750B00E50A450B602820D9250D
:10086600900001C007C006C005C002C0011205B253
:10087600D001D002D005D006D007150A74FFB50AFC
:1008860002150B80D275D50020D9047582FE222070
:10089600D90302099430DE0475820022E5D9540F8B
:1008A600F50C740EB50C0474018001E4F50A6007BA
:1008B6007420450CF58222740AB50C04740180017B
:1008C600E4F86033E94A700A7420450CF50D850D8D
:1008D6008222C3E994FFEA94FF500519B9FF011A71
:1008E60090083AE024FFFBA3E034FFFC90083AEBC3
:1008F600F0ECA3F0020997E50D700CE50E7034BD1F
:100906000D02800302099030DE0475820022740213
:10091600B50C0475820022E50A7003E860077420AE
:10092600450CF58222E50C70030209977420450CEC
:10093600F5822230DE0475820022EF6011740BB559
:100946000C0474018001E424FFE433FC801074037A
:10095600B50C0474018001E4FB24FFE433FCEC6075
:100966000475820022E50A7003E860077420450CCE
:10097600F582227403B50C07740BB50C028012E5E0
:100986000C600E7420450CF582227582FE2275D805
:10099600FF90000FC007C006C005C002C0011205C7
:1009A600B2D001D002D005D006D00790083AE02494
:1009B60001F0A3E03400F090083AE0FBA3E0FCC3AA
:1009C600EB94C8EC9400500302085375822022AFC2
:1009D60083E582900841F0EFA3F0900841E0FEA382
:1009E600E0FF900845EEF0EFA3F090083CE0FBA393
:1009F600E0FCA3E0FD9000C8C007C006C005C00427
:100A0600C0031205B2D003D004D005D006D007EB40
:100A16004C600E8B828C838DF0E4121FB6A3121FDE
:100A2600B675D708900836E4F09008377410F0745D
:100A360027A3F07582D0C007C006C005C004C00356
:100A460012081CAA82D003D004D005D006D007EA2B
:100A560060038A8222C006C00775D6D075D4D075C9
:100A6600D701900107E0FA7900900106E0F87F00CF
:100A76004201EF4202900843E9F0EAA3F0D007D022
:100A860006E94A7003020C83EE4F7003020C839052
:100A96000100E0FF20E703020B8F900843E0FEA36E
:100AA600E0FF4E7003020B8990012CC007C006C000
:100AB60005C004C0031205B2900836E5D4F09008CC
:100AC600377410F07427A3F075829012081CAA825E
:100AD600D003D004D005D006D007EA60038A82226C
:100AE600A9D17A00C3E99EEA9F5006A9D17A00806F
:100AF600048E018F0289067F00900843E0F8A3E088
:100B0600FA900843E8C39EF0EA9FA3F0EB4C6024FA
:100B16008B828C838DF0122A61F8A3122A61FAEE79
:100B260028FEEF3AFF8B828C838DF0EE121FB6A360
:100B3600EF121FB6900845E0FEA3E0FF7A00C3EA75
:100B460099501CC001EA2EF50FE43FF5108A827514
:100B56008300E0850F82851083F00AD00180DF9044
:100B66000845E0FEA3E0FF900845E92EF0E43FA328
:100B7600F0E5D1600E900628E0FFC3E5D19F400363
:100B8600020AA075D700020C83900843E0FEA3E09A
:100B9600FF4E7003020C839000C8C007C006C00554
:100BA600C004C0031205B2D003D004D005D006D0CD
:100BB60007900628E0F97A00C3EE99EF9A50048E62
:100BC600018F0289D7900845E0FEA3E0FFE5D72E06
:100BD600FEE43FFF900845EEF0EFA3F08E828F8390
:100BE600A3E0FABA0924900B7BE0F97A0074016954
:100BF6007003EA600679017A00800479007A009031
:100C06000B7BE9F08E828F83E9F0900836E5D6F00B
:100C16009008377410F07427A3F0758210C005C0D1
:100C260004C00312081CAF82D003D004D005EF60C5
:100C3600038F8222AED77F00900843E0F9A3E0FA43
:100C4600900843E9C39EF0EA9FA3F0EB4C700302C1
:100C56000B8F8B828C838DF0122A61FEA3122A6180
:100C6600FFA9D77A00E92EFEEA3FFF8B828C838D9F
:100C7600F0EE121FB6A3EF121FB6020B8F9000C83C
:100C86001205B2E5D760047F9080027F1090083687
:100C960074C0F09008377410F07427A3F08F821296
:100CA600081CE582FF60038F8222E5D77003F58278
:100CB60022E5D17003F5822275821722AF83E58281
:100CC600900848F0EFA3F0900848E0FEA3E0FF90FC
:100CD6000847E0FD7C00C3EC9D50178C027B01ECBD
:100CE6002EF582E43FF583E493F98A828B83F00C38
:100CF60080E4229006287408F0900847F0902A8134
:100D0600120CC290083C744AF07408A3F0E4A3F0F5
:100D160090083FF07402A3F09006291209D5E582E7
:100D2600FF60038F8222900630E0900628F0902A1A
:100D360087E493FF90084AE0FDA3E0FE7C00C3ED44
:100D46009FEE9C50047582172275820022E58290E0
:100D5600084CF09008477408F0902A99120CC2903B
:100D6600084CE0FF900102F090083CE4F0A3F0A3E9
:100D7600F090083FF0A3F0900000C0071209D5AE2E
:100D860082D007EE60038E82228F821206B2900016
:100D96006412060775820022E58290084DF09008DD
:100DA600477408F0902AA9120CC290084DE09001F1
:100DB60002F090083CE4F0A3F0A3F090083FF0A303
:100DC600F09000000209D59008477408F0902AA117
:100DD600120CC290083CE4F0A3F0A3F090083FF098
:100DE6007402A3F09006290209D5AF83E582900824
:100DF60053F0EFA3F0900853E0FEA3E0FF8E828F3E
:100E060083E07C0024FEFDEC34FFA2E713CD13CD76
:100E16008E828F83A3E0FCBC0302800475820022CD
:100E2600900850E0FBA3E0FCEB24FFF513EC34FF45
:100E3600F51490084EE0F515A3E0F5168515118515
:100E460016127800C3E89D5063C00588047D00C370
:100E5600EC9513ED9514D0055052C00588037C001F
:100E6600EB2BFBEC33FC74032BFAE43CFDEA2EFA85
:100E7600ED3FFD8A828D83E0D005600FE82511F5F0
:100E860082E43512F583743FF0801EE82515F9E4F7
:100E96003516FA74022BFBE43CFCEB2EF582EC3F94
:100EA600F583E0FC89828A83F0088098E82515F5A9
:100EB60082E43516F583E4F07F00900852E0FE0EDA
:100EC600900B1CEDF0EFA3F0900B1EEEF0900B1FB5
:100ED6007434F0900B207456F0900B21E515F0E574
:100EE60016A3F0758205121CD475820122AF83E524
:100EF60082900855F0EFA3F0900855E0FEA3E0FFBE
:100F06007C007D008E828F83E0FB7A00C3EC9BED34
:100F160064808AF063F08095F050070CBC00E50D04
:100F260080E2229008477408F0902A89120CC29039
:100F3600083C7457F07408A3F0E4A3F090083FF05F
:100F46007402A3F09006291209D5E582FF60038F8B
:100F56008222902A8FE493FF900857E0FDA3E0FEDB
:100F66007C00C3ED9FEE9C50047582172290062BE1
:100F7600E0FF7E0090062CE0FCE42FFFEC3EFE90A6
:100F860008477408F0902A89C007C006120CC2D020
:100F960006D0078F048E05900106ECF08E079001AF
:100FA60007EFF090083C7457F07408A3F0E4A3F040
:100FB60090083FF07402A3F09006291209D5E58245
:100FC600FF60038F8222758200229008477408F022
:100FD600902A91120CC290083C7459F07408A3F040
:100FE600E4A3F090083FF07402A3F09006290209EA
:100FF600D5E5829008BBF0E0FF75F010A4FDAEF0D9
:10100600249BF582EE3408F583E4F0A3F0A3F0A365
:10101600F0ED249BFDEE3408FE8D828E83A3A3A300
:10102600A3E4F0A3F0A3F0A3F074082DF582E43E48
:10103600F583E4F0A3F0A3F0A3F0740C2DF582E49D
:101046003EF583E4F0A3F0A3F0A3F07E00EE75F086
:1010560008A4245BFC740835F0FD74012CFAE43D09
:10106600FB8A828B83E0B507298C828D83E4F08A24
:10107600828B83F08C828D83A3A3F08C828D83A3D5
:10108600A3A3F08C828D83A3A3A3A3F0A3F0A3F064
:10109600A3F00EBE080040B5227F00EF75F008A44D
:1010A600FDAEF0245BFBEE3408FC8B828C83E07093
:1010B600030211E5ED245BFDEE3408FE8D828E837E
:1010C600A3E0FC900834E4F08C82C007C006C0059B
:1010D6001207EAD005D006D0078D828E83A3A3A37C
:1010E600E0FE747F5E4490FDEE30E7067CC07E0035
:1010F60080047C007E00900836ECF0900837E4F01F
:10110600A3F08D82C00712081CE582D00760030297
:1011160011E5EF75F008A4245BFD740835F0FE7444
:10112600032DFBE43EFC8B828C83E0F96301808B0C
:10113600828C83E9F09008BCE5D1F0E0FAE0700318
:101146000211E5B2968A017A008D828E83A3A3A34B
:10115600A3E0F88B828C83E0FB53037F8D828E8322
:10116600A3E075F010A4FEADF0249BF582ED3408E3
:10117600F583E0F517EE249BFEED3408FD8E828D97
:1011860083A3A3A3A3E0F51874082EF582E43DF526
:1011960083E0FC740C2EF582E43DF583E0FE900BB3
:1011A60023E9F0EAA3F0900B25E8F0900B26EFF088
:1011B600900B27EBF0900B287400F07400A3F090CE
:1011C6000B2AE517F0900B2BE518F0900B2CECF0A2
:1011D600900B2DEEF0758204C007121CD5D0070FB8
:1011E600BF080050030210A122AF83E5829008C019
:1011F600F0EFA3F09008C2E4F0A3F09008C4F090DA
:1012060008C5F09008C0E0F537A3E0F538AC37AD77
:10121600389008BFE075F008A4245BFA740835F02E
:10122600FB9008BDE0F535A3E0F5369008C2E0F581
:1012360031A3E0F532C3E5319535E5329536400107
:1012460022C002C003E5312537F582E5323538F58F
:1012560083E0FB9008C674FC5BF074035BF5319089
:1012660008C7F09008C8E4F0A3F0A3F0A3F0740355
:10127600B531028006D003D002800BD003D0029095
:1012860008C7E53104F0C002C0039008C2E0FAA323
:10129600E0FB74012AF531E43BF5329008C7E0F52E
:1012A60033753400D003D002C3E53495335054C0AF
:1012B60002C003AA347B00EA2531FAEB3532FBEA99
:1012C6002CF582EB3DF583E0F8E4F9FAFBE534C44E
:1012D6000354F8FF8FF005F0800CE828F8E933F99D
:1012E600EA33FAEB33FBD5F0F19008C8E048F0A3F7
:1012F600E049F0A3E04AF0A3E04BF00534D003D078
:101306000280A59008C4E0FF9008C6E0FEE4BEC0D7
:101316000104F53479008F31753200E534600875C3
:101326003901753A008005E4F539F53AC002C00383
:10133600E531C39539F8E532953AFB89027E00C35B
:10134600EA98EE64808BF063F08095F0D003D002CB
:1013560050030980C19008C6E0FFBF04028063BF46
:10136600080302140CBF14030214F0BF180302147E
:10137600F0BF24030214F0BF28030214F0BF3403A5
:101386000214F0BF44030214F0BF64030214F0BF5A
:1013960074030214F0BF80030214F0BF8403021426
:1013A600F0BF90030214F0BF94030214F0BFA00331
:1013B6000214E1BFB0030214F0BFC0030214EA0234
:1013C60014F09008C8E0F8A3E0F9A3E0FEA3E0FF5C
:1013D600C3E994FFEE9400EF94004008780079FF8B
:1013E6007E007F00B8010CB90009BE0006BF0003ED
:1013F6000214F0B8070CB90009BE0006BF0003D3FB
:101406008001C30214F09008C5E07032C004C00524
:1014160074042AFEE43BFF9008C8E0F8A3E0F9A3B1
:10142600E0FCA3E0FD8E828F83E8F0E9A3F0ECA355
:10143600F0EDA3F09008C57401F0D005D004900833
:10144600C8E0F8A3E0F9A3E0FEA3E0FFC374389870
:10145600E499E49EE49F50030214F0E8240A83F51D
:1014660082E8243D83F583E473F0F0F0F0F0F0F0C9
:10147600F0F0F0F0F0F0F0F0F0F0F0F0F0F0F0F066
:10148600F0F0F0F0F0F0F0F0F0F0F0F0F0F0F0F056
:10149600F0F0F0F0F0F0F0F0F0F0F0F0F0F0F0F046
:1014A600F0F014141414141414141414141414143E
:1014B60014141414141414141414141414141414E6
:1014C60014141414141414141414141414141414D6
:1014D60014141414141414141414149008C4E024CA
:1014E60001F080069008C4E014F09008C7E0FF7E83
:1014F600000FBF00010E9008C2E0F8A3E0F99008C3
:10150600C2EF28F0EE39A3F0021231E5829008CC42
:10151600F09008477408F0902AB1120CC29008CCDB
:10152600E075F008A4245BFE740835F0FF74022E03
:10153600FEE43FFF8E828F83E0900104F090083C2A
:1015460074CDF07408A3F0E4A3F090083FF0A3F084
:10155600900629C007C0061209D59008477408F0FE
:10156600902AB9120CC2D006D0078E828F83E090E3
:101576000104F0900106E4F09001077402F090086F
:101586003C74CDF07408A3F0E4A3F090083FF07427
:1015960002A3F09006291209D5E582FF60038F8227
:1015A600227E007F009008CDE0FCA3E0FDC3EE9C08
:1015B600EF9D50070EBE00ED0F80EA9008CCE0FFCD
:1015C60075F008A4245BFB740835F0FE8B828E83CD
:1015D600A3A3E0FA8B828E83A3E0FE900B1CECF0B3
:1015E600EDA3F0900B1EEFF0900B1FEAF0900B208E
:1015F600EEF0900B217429F07406A3F0758207C0F3
:1016060007121CD4D0079008CDE0FDA3E0FE900899
:10161600BDEDF0EEA3F09008BFEFF0900629121191
:10162600EF75820022222222E5829008D3F09008EC
:10163600D4E4F09008D3E0FFFE75F003A4F5198515
:10164600F01A8F1E751D00900064C007C0061206B2
:1016560007900064120607851E82120FF7851E8208
:101666001206D8D006D0077900900001C007C00640
:10167600C001120607D001D006D0078F82C007C06E
:1016860006C001120728E582D001D006D007600601
:1016960009B9640040D3B964108F82C007C006122E
:1016A6000644D006D007021AEE9008D3E0F9900857
:1016B60034E4F08982C007C006C0011207EA120CA2
:1016C600F9A882D001D006D0079008D4E8F0E860E7
:1016D60003021AA5C006E975F010A4F8AEF0249B23
:1016E600F51BEE3408F51C900631E0FA7B007C0011
:1016F6007D00851B82851C83EAF0EBA3F0ECA3F04A
:10170600EDA3F0E8249BF8EE3408FE740428F51BDC
:10171600E43EF51C900632E0FA7B007C007D0085F5
:101726001B82851C83EAF0EBA3F0ECA3F0EDA3F09B
:10173600740828F51BE43EF51C900633E0FA7B009E
:101746007C007D00851B82851C83EAF0EBA3F0EC10
:10175600A3F0EDA3F0740C28F8E43EFE900634E006
:10176600FD7C007B007A0088828E83EDF0ECA3F08E
:10177600EBA3F0EAA3F0900629C007C006C0011249
:101786000EF3D001D006902A9BE49329F51B851B06
:1017960082C001120D53AE82D001D0079008D4EE5C
:1017A600F0EED0066003021AA5E975F003A4242919
:1017B600FC740835F0FD8C828D83A3E51BF0C00711
:1017C600C006C001120DCD900629120EF3D001906D
:1017D600084E7429F07406A3F0900850E4F07402E1
:1017E600A3F0900852E9F0900629C001120DF012FC
:1017F6000F29AD82D001D006D0079008D4EDF0EDC8
:101806006003021AA590062BE0FD7C0090062CE0F2
:10181600FA7B00900B1CEB2DF0EA3CA3F009900B31
:101826001EE51BF0900B1FE9F0900B2074AAF090B8
:101836000B217429F07406A3F0758206121CD4904D
:101846000AD7E4F0A3F07C007D0090062BE0FB7A3B
:101856000090062CE0F9E42BFBE93AFAC3EC9BED89
:101866009A50070CBC00E30D80E090062EE0F5824E
:10187600120D9E90062BE0FD7C0090062CE0FAE40B
:101886002DFDEA3CFC8D028C0378007900C3E89AB2
:10189600E99B502BC005C004E824D7F51BE93408A2
:1018A600F51CE82429F582E93406F583E0851B82D8
:1018B600851C83F008B8000109D004D00580CE90BD
:1018C6000629E0FB9008D5F0E4A3F09008D3E0F5F4
:1018D60021AA218D1F8C209008D5E0F8A3E0F9C33A
:1018E600E8951FE995204003021AA1E824D7F8E9F4
:1018F6003408F9900AD9E8F0E9A3F088828983A32D
:10190600E0F51B7404B51B0280227405B51B02802A
:101916003B7421B51B03021A267424B51B03021A55
:10192600577425B51B03021A64021A7188048905C7
:10193600900AD7ECF0EDA3F09008CFECF0EDA3F011
:101946008A82C00212162BD002021A7CC00288823A
:101956008983C002C001C000120EF3D000D001D0AE
:1019660002900AD7E0FAA3E0FD8A828D83A3A3A39F
:10197600A3A3E0FDBD03028005D002021A7C880401
:10198600890574022CF522E43DF523852282852300
:1019960083E0D00220E703021A7C751B00C002E533
:1019A6001B75F008A4245BFA740835F0FB8A828B59
:1019B60083E0D0026008051B74F8251B50DFC002C7
:1019C600E51B75F008A4245BFA740835F0FB740374
:1019D6002AF524E43BF525852282852383E08524A8
:1019E60082852583F08A828B837401F0042AF5248C
:1019F600E43BF525900AD7E0FCA3E0FD8C828D83BD
:101A0600A3A3E0852482852583F08A828B83A3E5C0
:101A160021F0851B82C002121511D002D002805619
:101A2600900AD7E0FCA3E0FD900AD7E0F5F0A3E02A
:101A360045F06042C002880289039008D1EAF0EBC3
:101A4600A3F08C828D83C00212162CD002D00280A5
:101A56002588828983C002120EF3D00280188882FC
:101A66008983C002120EF3D002800B88828983C05C
:101A760002120EF3D002900AD9E0FCA3E0FD8C829C
:101A86008D83E0FC7D009008D5E0F9A3E0FB90088B
:101A9600D5EC29F0ED3BA3F00218DD758200228E0D
:101AA600050D9008D4E0FC900B1CE4F0A3F0900B1D
:101AB6001EEDF0900B1FECF0900B2074EEF0900BE7
:101AC60021E4F0A3F0758203C007C006121CD4E51A
:101AD600192429F582E51A3408F5837402F0758213
:101AE600011206C4D006D007051D74F6251D400355
:101AF60002164D9008D4E0F58222900ADBE4F0103D
:101B0600D803021C23E5DB30E349900829E060088E
:101B1600E5E430E003021B96758200120644900845
:101B2600297401F0900B1CE4F0A3F0900B1E04F056
:101B3600900B1FF0900B20F0900B21E4F0A3F075B2
:101B46008201121CD475820012162EE582900ADBE1
:101B5600F0803D900829E0FFBF0100403375820008
:101B6600120FF7758200120644900B1CE4F0A3F0E6
:101B7600900B1E04F0900B1FF0900B20F0900B21A1
:101B8600E4F0A3F0758202121CD4900ADB7416F0FE
:101B9600E5DB30E74A90082CE06008E5E530E00335
:101BA600021C2375820112064490082C7401F090E1
:101BB6000B1CE4F0A3F0900B1E7402F0900B1FF0C8
:101BC600900B20F0900B21E4F0A3F0758201121C1B
:101BD600D475820112162EE582900ADBF0803E90C3
:101BE600082CE0FFBF01004034758201120FF77523
:101BF6008201120644900B1CE4F0A3F0900B1E74B5
:101C060002F0900B1FF0900B20F0900B21E4F0A354
:101C1600F0758202121CD4900ADB7416F0900ADB6F
:041C2600E0F5822241
:102A81008006000100001200800600020000120012
:102A9100810600040000090000050200000000009A
:102AA100800602030904020400090000000000007E
:102AB100210A000000000000810600220000FF0042
:012AD60000FF
:101C2A0010980122900B7CE024DCF582E4340AF55A
:101C3A0083E599F0900B7CE0FF24DCF582E4340A1A
:101C4A00F583E0FEBE0A028008BF40005003021C72
:101C5A00CB7E00900B7CE0FDC3EE9D502EEE24DC83
:101C6A00F582E4340AF583E0FD7C00C006C005C0B5
:101C7A000474C1C0E0742AC0E07480C0E012201F5E
:101C8A00E58124FBF581D0060E80C874C9C0E074D2
:101C9A002AC0E07480C0E012201F158115811581C9
:101CAA00900ADCE0FEBE6B11900ADDE0FEBE62091E
:101CBA00850882850983120006900B7CE4F0021CD9
:101CCA002A900B7CEF04F0021C2A22E582900B2E4C
:101CDA00F0900B33E4F0900B2EE0FFBF040280017A
:101CEA0022900B25E0FFBF0202800122900B2BE01D
:101CFA00FE7F00900B2AE07C004207EC4206900B24
:101D0A002DE0FC7D00900B2CE0FB7A004205EA42B4
:101D1A0004BF6D05BE0402800ABFA706BE250302E2
:101D2A001E2722BD2B05BCC502801ABD2F06BCC5C5
:101D3A0003021DECBD3405BCC5028009BD4805BCC3
:101D4A00C502805122900B28E0FEA3E0FF8E828F0D
:101D5A0083A3E0900B2FF08E828F83A3A3A3E0903E
:101D6A000B30F08E828F83A3A3A3A3A3E0C454F005
:101D7A00FB8E828F83A3A3A3A3E0C4540FFA900B14
:101D8A00314BF074062EF582E43FF583E0FF900BA9
:101D9A0032F0021E76900B28E0FEA3E0FF8E828FBF
:101DAA0083A3E0900B2FF08E828F83A3A3A3E090EE
:101DBA000B30F08E828F83A3A3A3A3A3E0900B31F1
:101DCA00F074072EF582E43FF583E0FB900B32F0C6
:101DDA0074082EF582E43FF583E0FF900B33F0029E
:101DEA001E76900B28E0FEA3E0FF8E828F83E090A0
:101DFA000B2FF08E828F83A3A3E0900B30F08E829C
:101E0A008F83A3A3A3A3E0FB900B31F074062EF5F6
:101E1A0082E43FF583E0FF900B32F0804FBD104A19
:101E2A00BC2447900B28E0FEA3E0FF8E828F83E05C
:101E3A00900B2FF08E828F83A3E0900B30F08E826E
:101E4A008F83A3A3A3E0C454F0FD8E828F83A3A340
:101E5A00E0C4540FFC900B314DF08E828F83A3A304
:101E6A00A3A3E0FF900B32F080022222900080129E
:101E7A000585900B2FE0FF7E008F828E83120585E9
:101E8A00900B30E0FF7E008F828E83120585900BC7
:101E9A0031E0FF7E008F828E83120585900B32E03F
:101EAA00FF7E008F828E83120585900B33E0FF7EC2
:081EBA00008F828E8302058572
:0A2AC10030782530325820000A005A
:012AD70000FE
:101EC200AF82AE83ADF0FC900B38EFF0EEA3F0EDF5
:101ED200A3F0ECA3F0900B3CE4F0A3F0A3F0A3F08A
:101EE200900B34E0FCA3E0FDA3E0FEA3E0FF7B2027
:101EF200C003900B38E0F8A3E0F9A3E0FAA3E0FBFB
:101F0200900B40235401F0E828F8E933F9EA33FA58
:101F1200EB33FB900B38E8F0E9A3F0EAA3F0EBA374
:101F2200F0900B3CE0F8A3E0F9A3E0FAA3E0FBE8B1
:101F320028F8E933F9EA33FAEB33FB900B3CE8F08B
:101F4200E9A3F0EAA3F0EBA3F0D003900B40E0602A
:101F520008900B3CE043E001F0900B3CE0F531A32C
:101F6200E0F532A3E0F533A3E0F534C3E5319CE5B7
:101F7200329DE5339EE5349F401F900B3CE531C313
:101F82009CF0E5329DA3F0E5339EA3F0E5349FA3D8
:101F9200F0900B38E043E001F01BEB6003021EF20D
:101FA200900B38E0FCA3E0FDA3E0FEA3E08C828D61
:041FB200838EF02208
:06003700E478FFF6D8FD9D
:100015007902E94400601B7A01902AD6787B75A0A5
:100025000BE493F2A308B8000205A0D9F4DAF2753F
:02003500A0FF2A
:101FB60020F71130F6138883A88220F509F6A88346
:0B1FC6007583002280FEF280F5F022FF
:10003D007800E84400600A790075A006E4F309D859
:10004D00FC787BE84405600C7906900600E4F0A38B
:04005D00D8FCD9FAF8
:02000600E473A1
:101FD100C0308581307E008E83120585D03022AFDE
:101FE100F0AE83E582900B43F0EEA3F0EFA3F09007
:101FF1000B43E0FDA3E0FEA3E0FF900B42E0FC9069
:102001000B57E4F0A3F0A3F0900B5AEDF0EEA3F020
:10201100EFA3F0900B5DECF0901FD1022128C030AE
:10202100E581F53024FBFF900B57E4F0A3F0A3F01A
:10203100E53024FBF8900B5AE6F008E6A3F008E639
:10204100A3F0900B5DEFF0901FD1122128D0302228
:10205100E582900B53F0E0FF900B49E0C0E0A3E074
:10206100C0E0A3E0C0E012206C800D900B47E0C0FF
:10207100E0A3E0C0E08F8222158115811581900BCC
:1020810051E02401F0A3E03400F022E582900B54EA
:10209100F0E02430FF24C6500D74072FFF900B464B
:1020A100E060034307208F82022051E582900B55A7
:1020B100F0E0FFC4540FF582C00712208CD0075303
:1020C100070F8F8202208CE582900B56F0900B4C0B
:1020D100E0FCA3E0FDA3E0FEA3E0FF900B50E0FBDA
:1020E100753120900B56E0F98B00E828F8EF235466
:1020F1000148FBEC2CFCED33FDEE33FEEF33FFC367
:10210100EB994007EBC399FB430401E53114FA8ACB
:102111003170D5900B4CECF0EDA3F0EEA3F0EFA3F2
:10212100F0900B50EBF022AF83E582900B5EF0EF65
:10213100A3F0900B5EE0FEA3E0FF900B47EEF0EF03
:10214100A3F0900B57E0FDA3E0FEA3E0FF900B4945
:10215100EDF0EEA3F0EFA3F0900B51E4F0A3F090BB
:102161000B5AE0FDA3E0FEA3E0FF8D828E838FF08A
:10217100122A61FC900B5A74012DF0E43EA3F0EF9A
:10218100A3F0EC7003022A1DBC25028003022A156C
:10219100900B60E4F0900B61F0900B62F0900B6398
:1021A100F0900B64F0900B65F0900B66F0900B676C
:1021B100F0900B69F0900B6AF0A3F0900B6C14F0A7
:1021C100A3F0900B5AE0FDA3E0FEA3E0FF8D828E09
:1021D100838FF0122A61FBA3AD82AE83900B5AED7F
:1021E100F0EEA3F0EFA3F0900B70EBF0BB25088BA2
:1021F10082122051022160BB300050030222C1EB48
:1022010024C650030222C1900B6CE0F526A3E0F531
:102211002774FFB52663B52760C005C006C00790C7
:102221000B6AE0FAA3E0FF900B79EAF0EFA3F090DC
:10223100000AC005C003122A41AE82AF83D003D089
:10224100058B027D00EA2EFEED3FFFEE24D0FEEF6E
:1022510034FFFF900B6AEEF0EFA3F0D007D006D069
:1022610005900B6AE0F5F0A3E045F060030221CE92
:10227100900B617401F00221CEC005C006C0079029
:102281000B79E526F0E527A3F090000AC006C0050A
:10229100C003122A41AA82AF83D003D005D0067EA3
:1022A10000EB2AFAEE3FFFEA24D0FAEF34FFFF9069
:1022B1000B6CEAF0EFA3F0D007D006D0050221CED7
:1022C100900B70E0FBBB2E2FC005C006C007900B22
:1022D1006CE0FAA3E0FFBAFF05BFFF028009D00757
:1022E100D006D0050221CED007D006D005900B6CC8
:1022F100E4F0A3F00221CEBB61004014EB24854041
:102301000F900B7074DF5BF0900B467401F0800549
:10231100900B46E4F0900B70E0FBBB20028075BB94
:102321002B028067BB2D028059BB4202806FBB43E9
:1023310002807CBB44030225B8BB46030225DEBBF9
:1023410048030221CEBB49030225B8BB4A0302213F
:10235100CEBB4C028050BB4F030225C6BB500302CB
:102361002526BB53028077BB54030221CEBB550304
:102371000225CEBB58030225D6BB5A030221CE0249
:1023810025E6900B607401F00221CE900B6274017E
:10239100F00221CE900B637401F00221CE900B6507
:1023A1007401F00221CE900B667401F00221CE90EF
:1023B1000B65E0600E900B5DE014F9F0900B70E797
:1023C100F0800F900B5DE024FEFFF08F01900B7009
:1023D100E7F0900B70E0F5821220510225F5900B89
:1023E1005DE024FDFFF08F01870509870609870756
:1023F1001919900B4CEDF0EEA3F0EFA3F08D828E46
:10240100838FF0122A29858226858327900B6CE021
:10241100FAA3E0FDBAFF0DBDFF0A900B6CE526F0B3
:10242100E527A3F0900B60E0704B900B6AE0FAA3F4
:10243100E0FDC3E5269AE5279D503A900B6AEAC371
:102441009526F0ED9527A3F0900B6AE0FAA3E0FD45
:102451008A068D071ABAFF011DEE4F6010758220A2
:10246100C005C002122051D002D00580E3900B6A52
:10247100EAF0EDA3F0900B6CE0F529A3E0F52A90CA
:102481000B4CE0FAA3E0FDA3E0FF8A828D838FF07D
:10249100122A61F528603CC3E495297480852AF0ED
:1024A10063F08095F0502C152974FFB52902152A87
:1024B100852882122051900B4CE0FAA3E0FDA3E0A5
:1024C100FF0ABA00010D900B4CEAF0EDA3F0EFA367
:1024D100F080AC900B60E070030225F5900B6AE090
:1024E100FEA3E0FFC3E5269EE5279F40030225F5F5
:1024F100900B6AEEC39526F0EF9527A3F0900B6A37
:10250100E0FEA3E0FF8E028F051EBEFF011FEA4D14
:1025110070030225ED758220C007C006122051D03C
:1025210006D00780E0900B5DE024FDFDF08D018772
:102531002B09872C09872D1919900B4CE52BF0E5F8
:102541002CA3F0E52DA3F0900B4EE0FDBD800040E3
:1025510008900B707443F08020BD60004008900B20
:10256100707450F08013BD40004008900B707449A6
:10257100F08006900B707458F0900B70E0FDF582BE
:10258100C00512205175823A1220517582301220F5
:1025910051758278122051D005BD4902800EBD507F
:1025A100028009900B4DE0F5821220AC900B4CE0BB
:1025B100F5821220AC803D900B647401F0900B69A0
:1025C100740AF0802F900B697408F08027900B69D2
:1025D100740AF0801F900B697410F08017900B67DC
:1025E1007401F0800F8B821220518008900B6AEEEB
:1025F100F0EFA3F0900B67E06071900B5DE024FCBD
:10260100FFF08F01870309870509870609870719E5
:102611001919900B4CEBF0EDA3F0EEA3F0EFA3F042
:10262100900B4C74CBF0742AA3F07480A3F0900B40
:102631004CE0F52BA3E0F52CA3E0F52D7401252B3F
:10264100FAE4352CFBAF2D900B4CEAF0EBA3F0EF45
:10265100A3F0852B82852C83852DF0122A61FF70D2
:10266100030221608F8212205180C3900B69E070B8
:1026710003022160900B65E06047900B5DE014F967
:10268100F087077E007D007B00900B4CEFF0EEA3FE
:10269100F0EDA3F0EBA3F0900B64E06003022738A8
:1026A100900B4CE0FBA3E0A3E0A3E07D007E007F64
:1026B10000900B4CEBF0EDA3F0EEA3F0EFA3F08054
:1026C10076900B66E06028900B5DE024FCFFF08FB4
:1026D10001870309870509870609870719191990D1
:1026E1000B4CEBF0EDA3F0EEA3F0EFA3F0804890DC
:1026F1000B5DE024FEFFF08F01870609870719EFC4
:102701003395E0FDFB900B4CEEF0EFA3F0EDA3F061
:10271100EBA3F0900B64E0701E900B4CE0FBA3E088
:10272100FDA3E0A3E07E007F00900B4CEBF0EDA356
:10273100F0EEA3F0EFA3F0900B64E06041900B4C3E
:10274100E0FBA3E0FDA3E0FEA3E0FF30E72B900B4D
:102751004CE0FBA3E0FDA3E0FEA3E0FFC3E49BFB91
:10276100E49DFDE49EFEE49FFF900B4CEBF0EDA396
:10277100F0EEA3F0EFA3F08005900B64E4F0900B72
:10278100687401F0900B69E0F529752E76752F0BB1
:10279100E4F526F527900B50E4F08529821220C834
:1027A100900B68E07026900B50E0C4F52B852E82CB
:1027B100852F83E0FFE52B4207852E82852F83EF4E
:1027C100F0152E74FFB52E02152F800C900B50E0E2
:1027D100FF852E82852F83F00526E4B52602052785
:1027E100900B68E0B40100E433F0900B4CE0FAA3E5
:1027F100E0FBA3E0FEA3E0FFEA4B4E4F7097900B86
:1028010077E52EF0E52FA3F0900B6EE526F0E52796
:10281100A3F0900B6AE0F5F0A3E045F07009900B8E
:102821006A7401F0E4A3F0900B61E0FFE07047905F
:102831000B60E0704185262E85272F900B6AE0FA08
:10284100A3E0FBC007AF2E0F8F067F00C3EE9AEF08
:102851009BD0075019758220C007C003C002122007
:1028610051D002D003D0071ABAFF011B80D5900BBB
:102871006AEAF0EBA3F0900B64E0602075822DC052
:1028810007122051D007900B6AE024FFFDA3E0342A
:10289100FFFE900B6AEDF0EEA3F08056900B6EE018
:1028A100F5F0A3E045F0604A900B62E0602075828C
:1028B1002BC007122051D007900B6AE024FFFDA323
:1028C100E034FFFE900B6AEDF0EEA3F08024900B54
:1028D10063E0601E758220C007122051D007900B63
:1028E1006AE024FFFDA3E034FFFE900B6AEDF0EEF9
:1028F100A3F0900B60E07048900B6EE0F52EA3E022
:10290100F52F900B6AE0FAA3E0FBC0078A068B075C
:102911001ABAFF011BC3E52E9EE52F9FD007505326
:10292100EF60067D307E0080047D207E008D82C0B8
:1029310007C003C002122051D002D003D00780CAC1
:10294100900B6AE0FEA3E0FF900B6EE0F52EA3E092
:10295100F52FC3E52E9EE52F9F500F900B6AEEC316
:10296100952EF0EF952FA3F08011900B6AE4F0A360
:10297100F08008900B6AEAF0EBA3F0900B77E0FE91
:10298100A3E0FF900B6EE0F52EA3E0F52FAA2EAD8C
:102991002F152E74FFB52E02152FEA4D6045900BB1
:1029A10068E0B40100E433F0900B68E070140EBEEF
:1029B10000010F8E828F83E0C4540FFD900B50F005
:1029C100800E8E828F83E0FD53050F900B50EDF04A
:1029D100900B50E0F582C007C00612208CD006D0C3
:1029E1000780AA900B60E07003022160900B6AE0FF
:1029F100FEA3E0FF8E038F051EBEFF011FEB4D708E
:102A010003022160758220C007C006122051D00642
:102A1100D00780E08C82122051022160900B51E09E
:082A2100FEA3E08E82F5832282
:0B2ACB003C4E4F20464C4F41543E0053
:102A2900AA82AB83122A616003A380F8C3E5829A64
:102A3900F582E5839BF58322AA83AB828BF0900B09
:102A490079E0A4F8A9F08AF0E0A429F98BF0A3E0D1
:082A5900A429F58388822222E2
:0D00080075813A122A7DE582600302000333
:102A610020F71430F6148883A88220F507E6A8839E
:102A710075830022E280F7E49322E022758200222E
:00000001FF
